{
  "transactions": [
    {
      "hash": "0x7bbde94b4a63b3893665c5a8f88e2b0974de8f5adf20d7870c41732381cab28a",
      "transactionType": "CALL",
      "contractName": null,
      "contractAddress": "0xded3f4058ccdf3c05bc7f7c38cb07e66a6023893",
      "function": "receiveMessage(bytes32,(bytes2,uint64,address,bytes,uint256,uint256,(address,bytes4,uint256,uint256)),(bytes32,bytes))",
      "arguments": [
        "0x5e12ccf87b87be7309c632d60d2a42e5406714e1a2b4166d0d7e07f5eeb4268a",
        "(0x4243, 5115, 0x2314dfD079C2b2cf2C3247fCd552d9d52Ac486De, 0xd4e36ba70000000000000000000000000000000000000000000000000000000000000020000000000000000000000000000000000000000000000000000000000000002948656c6c6f2066726f6d20426974636f696e207769746820637573746f6d207369676e6174757265210000000000000000000000000000000000000000000000, 0, 1763875025, (0x2314dfD079C2b2cf2C3247fCd552d9d52Ac486De, 0xd4e36ba7, 0, 1763875025))",
        "(0x687a19159f505b04628614e3d85d2bf15a43f90a402b71411848de65eb9f602c, 0xfb7b064097a6711b8757717d2b6fef04c34d5e42bd008c048843e9bf67e7154d853ec373e15956b85dcf23a2cebd2cba212696af89fc0539791e65b7239a88e8)"
      ],
      "transaction": {
        "from": "0x2cac89abf06dbe5d3a059517053b7144074e1ce5",
        "to": "0xded3f4058ccdf3c05bc7f7c38cb07e66a6023893",
        "gas": "0xecd5",
        "value": "0x0",
        "input": "0xfb47a5475e12ccf87b87be7309c632d60d2a42e5406714e1a2b4166d0d7e07f5eeb4268a00000000000000000000000000000000000000000000000000000000000000600000000000000000000000000000000000000000000000000000000000000260424300000000000000000000000000000000000000000000000000000000000000000000000000000000000000000000000000000000000000000000000013fb0000000000000000000000002314dfd079c2b2cf2c3247fcd552d9d52ac486de0000000000000000000000000000000000000000000000000000000000000140000000000000000000000000000000000000000000000000000000000000000000000000000000000000000000000000000000000000000000000000692298d10000000000000000000000002314dfd079c2b2cf2c3247fcd552d9d52ac486ded4e36ba700000000000000000000000000000000000000000000000000000000000000000000000000000000000000000000000000000000000000000000000000000000000000000000000000000000000000000000000000000000692298d10000000000000000000000000000000000000000000000000000000000000084d4e36ba70000000000000000000000000000000000000000000000000000000000000020000000000000000000000000000000000000000000000000000000000000002948656c6c6f2066726f6d20426974636f696e207769746820637573746f6d207369676e617475726521000000000000000000000000000000000000000000000000000000000000000000000000000000000000000000000000000000687a19159f505b04628614e3d85d2bf15a43f90a402b71411848de65eb9f602c00000000000000000000000000000000000000000000000000000000000000400000000000000000000000000000000000000000000000000000000000000040fb7b064097a6711b8757717d2b6fef04c34d5e42bd008c048843e9bf67e7154d853ec373e15956b85dcf23a2cebd2cba212696af89fc0539791e65b7239a88e8",
        "nonce": "0x5b",
        "chainId": "0x13fb"
      },
      "additionalContracts": [],
      "isFixedGasLimit": false
    }
  ],
  "receipts": [
    {
      "status": "0x1",
      "cumulativeGasUsed": "0x51374",
      "logs": [
        {
          "address": "0xded3f4058ccdf3c05bc7f7c38cb07e66a6023893",
          "topics": [
            "0xd30f45644e04e8c884b64f321be591b1c5d17f3683a79d9ef34a960b026a7fa4",
            "0x5e12ccf87b87be7309c632d60d2a42e5406714e1a2b4166d0d7e07f5eeb4268a",
            "0x687a19159f505b04628614e3d85d2bf15a43f90a402b71411848de65eb9f602c"
          ],
          "data": "0x0000000000000000000000002314dfd079c2b2cf2c3247fcd552d9d52ac486ded4e36ba7000000000000000000000000000000000000000000000000000000000000000000000000000000000000000000000000000000000000000000000000",
          "blockHash": "0x9d6b4955eb296b1893c26e600f9b29f28948034f7e9a0b5b5816aa0dca94f5bb",
          "blockNumber": "0x11ac6a9",
          "blockTimestamp": "0x69228acb",
          "transactionHash": "0x7bbde94b4a63b3893665c5a8f88e2b0974de8f5adf20d7870c41732381cab28a",
          "transactionIndex": "0x3",
          "logIndex": "0x9",
          "removed": false
        },
        {
          "address": "0xded3f4058ccdf3c05bc7f7c38cb07e66a6023893",
          "topics": [
            "0x46256cabc3be3214e0a5cafe284432073b752453d7ce1ccc5275a98dec04ca67",
            "0x5e12ccf87b87be7309c632d60d2a42e5406714e1a2b4166d0d7e07f5eeb4268a"
          ],
          "data": "0x687a19159f505b04628614e3d85d2bf15a43f90a402b71411848de65eb9f602c463940adba0b3b90df336737cc5c41dea465309297bc4b8f2e9bbee7965a2c1a0000000000000000000000000000000000000000000000000000000000000000",
          "blockHash": "0x9d6b4955eb296b1893c26e600f9b29f28948034f7e9a0b5b5816aa0dca94f5bb",
          "blockNumber": "0x11ac6a9",
          "blockTimestamp": "0x69228acb",
          "transactionHash": "0x7bbde94b4a63b3893665c5a8f88e2b0974de8f5adf20d7870c41732381cab28a",
          "transactionIndex": "0x3",
          "logIndex": "0xa",
          "removed": false
        },
        {
          "address": "0xded3f4058ccdf3c05bc7f7c38cb07e66a6023893",
          "topics": [
            "0xf3d0f6152678f25d8ccacdca3862546ee6140231e46bb579aad780c77e991c29",
            "0x5e12ccf87b87be7309c632d60d2a42e5406714e1a2b4166d0d7e07f5eeb4268a"
          ],
          "data": "0x00000000000000000000000000000000000000000000000000000000000000200000000000000000000000000000000000000000000000000000000000000019496e76616c6964205363686e6f7272207369676e617475726500000000000000",
          "blockHash": "0x9d6b4955eb296b1893c26e600f9b29f28948034f7e9a0b5b5816aa0dca94f5bb",
          "blockNumber": "0x11ac6a9",
          "blockTimestamp": "0x69228acb",
          "transactionHash": "0x7bbde94b4a63b3893665c5a8f88e2b0974de8f5adf20d7870c41732381cab28a",
          "transactionIndex": "0x3",
          "logIndex": "0xb",
          "removed": false
        }
      ],
      "logsBloom": "0x00000000000000000000040010000000000000000000000000000000402000000000000000000001000000000000000000000000000000000000000000000000000000000000000000000000000000000000000001000000000000000000000000000000000000000002000000000000000000000000000000000000000000000020000000000000000000000020000000004000000000000004000000000000000000000000000000000040000240000000000000000000000000000000000000000000000000000001002000000000000000000000000000000000000000000000000000000000000000000000000000000008000000000000080000000000",
      "type": "0x2",
      "transactionHash": "0x7bbde94b4a63b3893665c5a8f88e2b0974de8f5adf20d7870c41732381cab28a",
      "transactionIndex": "0x3",
      "blockHash": "0x9d6b4955eb296b1893c26e600f9b29f28948034f7e9a0b5b5816aa0dca94f5bb",
      "blockNumber": "0x11ac6a9",
      "gasUsed": "0xb3ab",
      "effectiveGasPrice": "0xf42a4",
      "from": "0x2cac89abf06dbe5d3a059517053b7144074e1ce5",
      "to": "0xded3f4058ccdf3c05bc7f7c38cb07e66a6023893",
      "contractAddress": null,
      "l1DiffSize": "0x9",
      "l1FeeRate": "0x6fc23ac0"
    }
  ],
  "libraries": [],
  "pending": [],
  "returns": {},
  "timestamp": 1763871436,
  "chain": 5115,
  "commit": "b983a69"
}