{
  "transactions": [
    {
      "hash": "0x7431333668a1f1946784b0562b4150aca397a8d6f106539734149f9c605d3fbb",
      "transactionType": "CALL",
      "contractName": null,
      "contractAddress": "0xded3f4058ccdf3c05bc7f7c38cb07e66a6023893",
      "function": "receiveMessage(bytes32,(bytes2,uint64,address,bytes,uint256,uint256,(address,bytes4,uint256,uint256)),(bytes32,bytes))",
      "arguments": [
        "0x44ca870e2818a1e7b1833c126f3ca0cbaf6e5e926d1603eba07d6e0b1ea57c57",
        "(0x4243, 5115, 0x2314dfD079C2b2cf2C3247fCd552d9d52Ac486De, 0xd4e36ba70000000000000000000000000000000000000000000000000000000000000020000000000000000000000000000000000000000000000000000000000000001f48656c6c6f2066726f6d20426974636f696e2076696120466f756e6472792100, 0, 1763874653, (0x2314dfD079C2b2cf2C3247fCd552d9d52Ac486De, 0xd4e36ba7, 0, 1763874653))",
        "(0xf9308a019258c31049344f85f89d5229b531c845836f99b08601f113bce036f9, 0xebdee97d060096cfc868ccfa97b6f61c8837ac0e3396abb31d45e68679654a14a7c08cd54f772890989d0fee7d77add7f79288f34d37205b383b8d4246034d9d)"
      ],
      "transaction": {
        "from": "0x2cac89abf06dbe5d3a059517053b7144074e1ce5",
        "to": "0xded3f4058ccdf3c05bc7f7c38cb07e66a6023893",
        "gas": "0xf947",
        "value": "0x0",
        "input": "0xfb47a54744ca870e2818a1e7b1833c126f3ca0cbaf6e5e926d1603eba07d6e0b1ea57c5700000000000000000000000000000000000000000000000000000000000000600000000000000000000000000000000000000000000000000000000000000240424300000000000000000000000000000000000000000000000000000000000000000000000000000000000000000000000000000000000000000000000013fb0000000000000000000000002314dfd079c2b2cf2c3247fcd552d9d52ac486de00000000000000000000000000000000000000000000000000000000000001400000000000000000000000000000000000000000000000000000000000000000000000000000000000000000000000000000000000000000000000006922975d0000000000000000000000002314dfd079c2b2cf2c3247fcd552d9d52ac486ded4e36ba7000000000000000000000000000000000000000000000000000000000000000000000000000000000000000000000000000000000000000000000000000000000000000000000000000000000000000000000000000000006922975d0000000000000000000000000000000000000000000000000000000000000064d4e36ba70000000000000000000000000000000000000000000000000000000000000020000000000000000000000000000000000000000000000000000000000000001f48656c6c6f2066726f6d20426974636f696e2076696120466f756e647279210000000000000000000000000000000000000000000000000000000000f9308a019258c31049344f85f89d5229b531c845836f99b08601f113bce036f900000000000000000000000000000000000000000000000000000000000000400000000000000000000000000000000000000000000000000000000000000040ebdee97d060096cfc868ccfa97b6f61c8837ac0e3396abb31d45e68679654a14a7c08cd54f772890989d0fee7d77add7f79288f34d37205b383b8d4246034d9d",
        "nonce": "0x5a",
        "chainId": "0x13fb"
      },
      "additionalContracts": [],
      "isFixedGasLimit": false
    }
  ],
  "receipts": [
    {
      "status": "0x1",
      "cumulativeGasUsed": "0x81cdd",
      "logs": [
        {
          "address": "0xded3f4058ccdf3c05bc7f7c38cb07e66a6023893",
          "topics": [
            "0xd30f45644e04e8c884b64f321be591b1c5d17f3683a79d9ef34a960b026a7fa4",
            "0x44ca870e2818a1e7b1833c126f3ca0cbaf6e5e926d1603eba07d6e0b1ea57c57",
            "0xf9308a019258c31049344f85f89d5229b531c845836f99b08601f113bce036f9"
          ],
          "data": "0x0000000000000000000000002314dfd079c2b2cf2c3247fcd552d9d52ac486ded4e36ba7000000000000000000000000000000000000000000000000000000000000000000000000000000000000000000000000000000000000000000000000",
          "blockHash": "0x4733464844edf635bd43d833772357033ccd1e71d54e42ff29379412e9354745",
          "blockNumber": "0x11ac5ef",
          "blockTimestamp": "0x69228957",
          "transactionHash": "0x7431333668a1f1946784b0562b4150aca397a8d6f106539734149f9c605d3fbb",
          "transactionIndex": "0x3",
          "logIndex": "0xe",
          "removed": false
        },
        {
          "address": "0xded3f4058ccdf3c05bc7f7c38cb07e66a6023893",
          "topics": [
            "0x46256cabc3be3214e0a5cafe284432073b752453d7ce1ccc5275a98dec04ca67",
            "0x44ca870e2818a1e7b1833c126f3ca0cbaf6e5e926d1603eba07d6e0b1ea57c57"
          ],
          "data": "0xf9308a019258c31049344f85f89d5229b531c845836f99b08601f113bce036f96d3e8ec942487c85824e695fd4110d9d3cfa1411eb21a9c52789b5bd430931360000000000000000000000000000000000000000000000000000000000000000",
          "blockHash": "0x4733464844edf635bd43d833772357033ccd1e71d54e42ff29379412e9354745",
          "blockNumber": "0x11ac5ef",
          "blockTimestamp": "0x69228957",
          "transactionHash": "0x7431333668a1f1946784b0562b4150aca397a8d6f106539734149f9c605d3fbb",
          "transactionIndex": "0x3",
          "logIndex": "0xf",
          "removed": false
        },
        {
          "address": "0xded3f4058ccdf3c05bc7f7c38cb07e66a6023893",
          "topics": [
            "0xf3d0f6152678f25d8ccacdca3862546ee6140231e46bb579aad780c77e991c29",
            "0x44ca870e2818a1e7b1833c126f3ca0cbaf6e5e926d1603eba07d6e0b1ea57c57"
          ],
          "data": "0x00000000000000000000000000000000000000000000000000000000000000200000000000000000000000000000000000000000000000000000000000000019496e76616c6964205363686e6f7272207369676e617475726500000000000000",
          "blockHash": "0x4733464844edf635bd43d833772357033ccd1e71d54e42ff29379412e9354745",
          "blockNumber": "0x11ac5ef",
          "blockTimestamp": "0x69228957",
          "transactionHash": "0x7431333668a1f1946784b0562b4150aca397a8d6f106539734149f9c605d3fbb",
          "transactionIndex": "0x3",
          "logIndex": "0x10",
          "removed": false
        }
      ],
      "logsBloom": "0x00000000000000000000040000100000000000000000000000000000400000000004000000000000000000000000000000000000000020000000000000000000000000000000000000000000000000000000000001000000000000000000000000000000040000000002000000000000000000000000000010000000000000000020000000000000000000000020000000000000000000000004000000000000000000100000000000000040000200000000000000000000000000000000000000000000000000000001002000000000000000000000000000000000000000000000000000000000000000000000000000000000000000000000080000000000",
      "type": "0x2",
      "transactionHash": "0x7431333668a1f1946784b0562b4150aca397a8d6f106539734149f9c605d3fbb",
      "transactionIndex": "0x3",
      "blockHash": "0x4733464844edf635bd43d833772357033ccd1e71d54e42ff29379412e9354745",
      "blockNumber": "0x11ac5ef",
      "gasUsed": "0xb2a7",
      "effectiveGasPrice": "0xf42a4",
      "from": "0x2cac89abf06dbe5d3a059517053b7144074e1ce5",
      "to": "0xded3f4058ccdf3c05bc7f7c38cb07e66a6023893",
      "contractAddress": null,
      "l1DiffSize": "0x9",
      "l1FeeRate": "0x6fc23ac0"
    }
  ],
  "libraries": [],
  "pending": [],
  "returns": {},
  "timestamp": 1763871063,
  "chain": 5115,
  "commit": "b983a69"
}